{
  "contractName": "GachaNFT",
  "abi": [
    {
      "inputs": [],
      "stateMutability": "nonpayable",
      "type": "constructor"
    },
    {
      "anonymous": false,
      "inputs": [
        {
          "indexed": true,
          "internalType": "address",
          "name": "owner",
          "type": "address"
        },
        {
          "indexed": true,
          "internalType": "address",
          "name": "approved",
          "type": "address"
        },
        {
          "indexed": true,
          "internalType": "uint256",
          "name": "tokenId",
          "type": "uint256"
        }
      ],
      "name": "Approval",
      "type": "event"
    },
    {
      "anonymous": false,
      "inputs": [
        {
          "indexed": true,
          "internalType": "address",
          "name": "owner",
          "type": "address"
        },
        {
          "indexed": true,
          "internalType": "address",
          "name": "operator",
          "type": "address"
        },
        {
          "indexed": false,
          "internalType": "bool",
          "name": "approved",
          "type": "bool"
        }
      ],
      "name": "ApprovalForAll",
      "type": "event"
    },
    {
      "anonymous": false,
      "inputs": [
        {
          "indexed": true,
          "internalType": "address",
          "name": "previousOwner",
          "type": "address"
        },
        {
          "indexed": true,
          "internalType": "address",
          "name": "newOwner",
          "type": "address"
        }
      ],
      "name": "OwnershipTransferred",
      "type": "event"
    },
    {
      "anonymous": false,
      "inputs": [
        {
          "indexed": true,
          "internalType": "address",
          "name": "from",
          "type": "address"
        },
        {
          "indexed": true,
          "internalType": "address",
          "name": "to",
          "type": "address"
        },
        {
          "indexed": true,
          "internalType": "uint256",
          "name": "tokenId",
          "type": "uint256"
        }
      ],
      "name": "Transfer",
      "type": "event"
    },
    {
      "inputs": [
        {
          "internalType": "address",
          "name": "to",
          "type": "address"
        },
        {
          "internalType": "uint256",
          "name": "tokenId",
          "type": "uint256"
        }
      ],
      "name": "approve",
      "outputs": [],
      "stateMutability": "nonpayable",
      "type": "function"
    },
    {
      "inputs": [
        {
          "internalType": "address",
          "name": "owner",
          "type": "address"
        }
      ],
      "name": "balanceOf",
      "outputs": [
        {
          "internalType": "uint256",
          "name": "",
          "type": "uint256"
        }
      ],
      "stateMutability": "view",
      "type": "function",
      "constant": true
    },
    {
      "inputs": [
        {
          "internalType": "uint256",
          "name": "tokenId",
          "type": "uint256"
        }
      ],
      "name": "getApproved",
      "outputs": [
        {
          "internalType": "address",
          "name": "",
          "type": "address"
        }
      ],
      "stateMutability": "view",
      "type": "function",
      "constant": true
    },
    {
      "inputs": [
        {
          "internalType": "address",
          "name": "owner",
          "type": "address"
        },
        {
          "internalType": "address",
          "name": "operator",
          "type": "address"
        }
      ],
      "name": "isApprovedForAll",
      "outputs": [
        {
          "internalType": "bool",
          "name": "",
          "type": "bool"
        }
      ],
      "stateMutability": "view",
      "type": "function",
      "constant": true
    },
    {
      "inputs": [],
      "name": "name",
      "outputs": [
        {
          "internalType": "string",
          "name": "",
          "type": "string"
        }
      ],
      "stateMutability": "view",
      "type": "function",
      "constant": true
    },
    {
      "inputs": [],
      "name": "nextTokenId",
      "outputs": [
        {
          "internalType": "uint256",
          "name": "",
          "type": "uint256"
        }
      ],
      "stateMutability": "view",
      "type": "function",
      "constant": true
    },
    {
      "inputs": [],
      "name": "owner",
      "outputs": [
        {
          "internalType": "address",
          "name": "",
          "type": "address"
        }
      ],
      "stateMutability": "view",
      "type": "function",
      "constant": true
    },
    {
      "inputs": [
        {
          "internalType": "uint256",
          "name": "tokenId",
          "type": "uint256"
        }
      ],
      "name": "ownerOf",
      "outputs": [
        {
          "internalType": "address",
          "name": "",
          "type": "address"
        }
      ],
      "stateMutability": "view",
      "type": "function",
      "constant": true
    },
    {
      "inputs": [],
      "name": "renounceOwnership",
      "outputs": [],
      "stateMutability": "nonpayable",
      "type": "function"
    },
    {
      "inputs": [
        {
          "internalType": "address",
          "name": "from",
          "type": "address"
        },
        {
          "internalType": "address",
          "name": "to",
          "type": "address"
        },
        {
          "internalType": "uint256",
          "name": "tokenId",
          "type": "uint256"
        }
      ],
      "name": "safeTransferFrom",
      "outputs": [],
      "stateMutability": "nonpayable",
      "type": "function"
    },
    {
      "inputs": [
        {
          "internalType": "address",
          "name": "from",
          "type": "address"
        },
        {
          "internalType": "address",
          "name": "to",
          "type": "address"
        },
        {
          "internalType": "uint256",
          "name": "tokenId",
          "type": "uint256"
        },
        {
          "internalType": "bytes",
          "name": "data",
          "type": "bytes"
        }
      ],
      "name": "safeTransferFrom",
      "outputs": [],
      "stateMutability": "nonpayable",
      "type": "function"
    },
    {
      "inputs": [
        {
          "internalType": "address",
          "name": "operator",
          "type": "address"
        },
        {
          "internalType": "bool",
          "name": "approved",
          "type": "bool"
        }
      ],
      "name": "setApprovalForAll",
      "outputs": [],
      "stateMutability": "nonpayable",
      "type": "function"
    },
    {
      "inputs": [
        {
          "internalType": "bytes4",
          "name": "interfaceId",
          "type": "bytes4"
        }
      ],
      "name": "supportsInterface",
      "outputs": [
        {
          "internalType": "bool",
          "name": "",
          "type": "bool"
        }
      ],
      "stateMutability": "view",
      "type": "function",
      "constant": true
    },
    {
      "inputs": [],
      "name": "symbol",
      "outputs": [
        {
          "internalType": "string",
          "name": "",
          "type": "string"
        }
      ],
      "stateMutability": "view",
      "type": "function",
      "constant": true
    },
    {
      "inputs": [
        {
          "internalType": "uint256",
          "name": "tokenId",
          "type": "uint256"
        }
      ],
      "name": "tokenURI",
      "outputs": [
        {
          "internalType": "string",
          "name": "",
          "type": "string"
        }
      ],
      "stateMutability": "view",
      "type": "function",
      "constant": true
    },
    {
      "inputs": [
        {
          "internalType": "address",
          "name": "from",
          "type": "address"
        },
        {
          "internalType": "address",
          "name": "to",
          "type": "address"
        },
        {
          "internalType": "uint256",
          "name": "tokenId",
          "type": "uint256"
        }
      ],
      "name": "transferFrom",
      "outputs": [],
      "stateMutability": "nonpayable",
      "type": "function"
    },
    {
      "inputs": [
        {
          "internalType": "address",
          "name": "newOwner",
          "type": "address"
        }
      ],
      "name": "transferOwnership",
      "outputs": [],
      "stateMutability": "nonpayable",
      "type": "function"
    },
    {
      "inputs": [
        {
          "internalType": "address",
          "name": "to",
          "type": "address"
        },
        {
          "internalType": "string",
          "name": "tokenURI",
          "type": "string"
        }
      ],
      "name": "mint",
      "outputs": [
        {
          "internalType": "uint256",
          "name": "",
          "type": "uint256"
        }
      ],
      "stateMutability": "nonpayable",
      "type": "function"
    }
  ],
  "bytecode": "0x608060405260006008553480156200001657600080fd5b506040518060400160405280600881526020017f47616368614e46540000000000000000000000000000000000000000000000008152506040518060400160405280600481526020017f474e46540000000000000000000000000000000000000000000000000000000081525081600090805190602001906200009b9291906200030d565b508060019080519060200190620000b49291906200030d565b505050620000d7620000cb620000ee60201b60201c565b620000f660201b60201c565b620000e833620001bc60201b60201c565b6200053c565b600033905090565b6000600760009054906101000a900473ffffffffffffffffffffffffffffffffffffffff16905081600760006101000a81548173ffffffffffffffffffffffffffffffffffffffff021916908373ffffffffffffffffffffffffffffffffffffffff1602179055508173ffffffffffffffffffffffffffffffffffffffff168173ffffffffffffffffffffffffffffffffffffffff167f8be0079c531659141344cd1fd0a4f28419497f9722a3daafe3b4186f6b6457e060405160405180910390a35050565b620001cc6200025260201b60201c565b600073ffffffffffffffffffffffffffffffffffffffff168173ffffffffffffffffffffffffffffffffffffffff16036200023e576040517f08c379a0000000000000000000000000000000000000000000000000000000008152600401620002359062000444565b60405180910390fd5b6200024f81620000f660201b60201c565b50565b62000262620000ee60201b60201c565b73ffffffffffffffffffffffffffffffffffffffff1662000288620002e360201b60201c565b73ffffffffffffffffffffffffffffffffffffffff1614620002e1576040517f08c379a0000000000000000000000000000000000000000000000000000000008152600401620002d890620004b6565b60405180910390fd5b565b6000600760009054906101000a900473ffffffffffffffffffffffffffffffffffffffff16905090565b8280546200031b9062000507565b90600052602060002090601f0160209004810192826200033f57600085556200038b565b82601f106200035a57805160ff19168380011785556200038b565b828001600101855582156200038b579182015b828111156200038a5782518255916020019190600101906200036d565b5b5090506200039a91906200039e565b5090565b5b80821115620003b95760008160009055506001016200039f565b5090565b600082825260208201905092915050565b7f4f776e61626c653a206e6577206f776e657220697320746865207a65726f206160008201527f6464726573730000000000000000000000000000000000000000000000000000602082015250565b60006200042c602683620003bd565b91506200043982620003ce565b604082019050919050565b600060208201905081810360008301526200045f816200041d565b9050919050565b7f4f776e61626c653a2063616c6c6572206973206e6f7420746865206f776e6572600082015250565b60006200049e602083620003bd565b9150620004ab8262000466565b602082019050919050565b60006020820190508181036000830152620004d1816200048f565b9050919050565b7f4e487b7100000000000000000000000000000000000000000000000000000000600052602260045260246000fd5b600060028204905060018216806200052057607f821691505b602082108103620005365762000535620004d8565b5b50919050565b612c76806200054c6000396000f3fe608060405234801561001057600080fd5b50600436106101165760003560e01c806375794a3c116100a2578063b88d4fde11610071578063b88d4fde146102cd578063c87b56dd146102e9578063d0def52114610319578063e985e9c514610349578063f2fde38b1461037957610116565b806375794a3c146102575780638da5cb5b1461027557806395d89b4114610293578063a22cb465146102b157610116565b806323b872dd116100e957806323b872dd146101b557806342842e0e146101d15780636352211e146101ed57806370a082311461021d578063715018a61461024d57610116565b806301ffc9a71461011b57806306fdde031461014b578063081812fc14610169578063095ea7b314610199575b600080fd5b61013560048036038101906101309190611c65565b610395565b6040516101429190611cad565b60405180910390f35b610153610477565b6040516101609190611d61565b60405180910390f35b610183600480360381019061017e9190611db9565b610509565b6040516101909190611e27565b60405180910390f35b6101b360048036038101906101ae9190611e6e565b61054f565b005b6101cf60048036038101906101ca9190611eae565b610666565b005b6101eb60048036038101906101e69190611eae565b6106c6565b005b61020760048036038101906102029190611db9565b6106e6565b6040516102149190611e27565b60405180910390f35b61023760048036038101906102329190611f01565b61076c565b6040516102449190611f3d565b60405180910390f35b610255610823565b005b61025f610837565b60405161026c9190611f3d565b60405180910390f35b61027d61083d565b60405161028a9190611e27565b60405180910390f35b61029b610867565b6040516102a89190611d61565b60405180910390f35b6102cb60048036038101906102c69190611f84565b6108f9565b005b6102e760048036038101906102e291906120f9565b61090f565b005b61030360048036038101906102fe9190611db9565b610971565b6040516103109190611d61565b60405180910390f35b610333600480360381019061032e919061221d565b610a83565b6040516103409190611f3d565b60405180910390f35b610363600480360381019061035e9190612279565b610aca565b6040516103709190611cad565b60405180910390f35b610393600480360381019061038e9190611f01565b610b5e565b005b60007f80ac58cd000000000000000000000000000000000000000000000000000000007bffffffffffffffffffffffffffffffffffffffffffffffffffffffff1916827bffffffffffffffffffffffffffffffffffffffffffffffffffffffff1916148061046057507f5b5e139f000000000000000000000000000000000000000000000000000000007bffffffffffffffffffffffffffffffffffffffffffffffffffffffff1916827bffffffffffffffffffffffffffffffffffffffffffffffffffffffff1916145b80610470575061046f82610be1565b5b9050919050565b606060008054610486906122e8565b80601f01602080910402602001604051908101604052809291908181526020018280546104b2906122e8565b80156104ff5780601f106104d4576101008083540402835291602001916104ff565b820191906000526020600020905b8154815290600101906020018083116104e257829003601f168201915b5050505050905090565b600061051482610c4b565b6004600083815260200190815260200160002060009054906101000a900473ffffffffffffffffffffffffffffffffffffffff169050919050565b600061055a826106e6565b90508073ffffffffffffffffffffffffffffffffffffffff168373ffffffffffffffffffffffffffffffffffffffff16036105ca576040517f08c379a00000000000000000000000000000000000000000000000000000000081526004016105c19061238b565b60405180910390fd5b8073ffffffffffffffffffffffffffffffffffffffff166105e9610c96565b73ffffffffffffffffffffffffffffffffffffffff161480610618575061061781610612610c96565b610aca565b5b610657576040517f08c379a000000000000000000000000000000000000000000000000000000000815260040161064e9061241d565b60405180910390fd5b6106618383610c9e565b505050565b610677610671610c96565b82610d57565b6106b6576040517f08c379a00000000000000000000000000000000000000000000000000000000081526004016106ad906124af565b60405180910390fd5b6106c1838383610dec565b505050565b6106e18383836040518060200160405280600081525061090f565b505050565b6000806106f2836110e5565b9050600073ffffffffffffffffffffffffffffffffffffffff168173ffffffffffffffffffffffffffffffffffffffff1603610763576040517f08c379a000000000000000000000000000000000000000000000000000000000815260040161075a9061251b565b60405180910390fd5b80915050919050565b60008073ffffffffffffffffffffffffffffffffffffffff168273ffffffffffffffffffffffffffffffffffffffff16036107dc576040517f08c379a00000000000000000000000000000000000000000000000000000000081526004016107d3906125ad565b60405180910390fd5b600360008373ffffffffffffffffffffffffffffffffffffffff1673ffffffffffffffffffffffffffffffffffffffff168152602001908152602001600020549050919050565b61082b611122565b61083560006111a0565b565b60085481565b6000600760009054906101000a900473ffffffffffffffffffffffffffffffffffffffff16905090565b606060018054610876906122e8565b80601f01602080910402602001604051908101604052809291908181526020018280546108a2906122e8565b80156108ef5780601f106108c4576101008083540402835291602001916108ef565b820191906000526020600020905b8154815290600101906020018083116108d257829003601f168201915b5050505050905090565b61090b610904610c96565b8383611266565b5050565b61092061091a610c96565b83610d57565b61095f576040517f08c379a0000000000000000000000000000000000000000000000000000000008152600401610956906124af565b60405180910390fd5b61096b848484846113d2565b50505050565b606061097c82610c4b565b600060066000848152602001908152602001600020805461099c906122e8565b80601f01602080910402602001604051908101604052809291908181526020018280546109c8906122e8565b8015610a155780601f106109ea57610100808354040283529160200191610a15565b820191906000526020600020905b8154815290600101906020018083116109f857829003601f168201915b505050505090506000610a2661142e565b90506000815103610a3b578192505050610a7e565b600082511115610a70578082604051602001610a58929190612609565b60405160208183030381529060405292505050610a7e565b610a7984611445565b925050505b919050565b6000610a8d611122565b6000600854905060086000815480929190610aa79061265c565b9190505550610ab684826114ad565b610ac081846116ca565b8091505092915050565b6000600560008473ffffffffffffffffffffffffffffffffffffffff1673ffffffffffffffffffffffffffffffffffffffff16815260200190815260200160002060008373ffffffffffffffffffffffffffffffffffffffff1673ffffffffffffffffffffffffffffffffffffffff16815260200190815260200160002060009054906101000a900460ff16905092915050565b610b66611122565b600073ffffffffffffffffffffffffffffffffffffffff168173ffffffffffffffffffffffffffffffffffffffff1603610bd5576040517f08c379a0000000000000000000000000000000000000000000000000000000008152600401610bcc90612716565b60405180910390fd5b610bde816111a0565b50565b60007f01ffc9a7000000000000000000000000000000000000000000000000000000007bffffffffffffffffffffffffffffffffffffffffffffffffffffffff1916827bffffffffffffffffffffffffffffffffffffffffffffffffffffffff1916149050919050565b610c548161173e565b610c93576040517f08c379a0000000000000000000000000000000000000000000000000000000008152600401610c8a9061251b565b60405180910390fd5b50565b600033905090565b816004600083815260200190815260200160002060006101000a81548173ffffffffffffffffffffffffffffffffffffffff021916908373ffffffffffffffffffffffffffffffffffffffff160217905550808273ffffffffffffffffffffffffffffffffffffffff16610d11836106e6565b73ffffffffffffffffffffffffffffffffffffffff167f8c5be1e5ebec7d5bd14f71427d1e84f3dd0314c0f7b2291e5b200ac8c7c3b92560405160405180910390a45050565b600080610d63836106e6565b90508073ffffffffffffffffffffffffffffffffffffffff168473ffffffffffffffffffffffffffffffffffffffff161480610da55750610da48185610aca565b5b80610de357508373ffffffffffffffffffffffffffffffffffffffff16610dcb84610509565b73ffffffffffffffffffffffffffffffffffffffff16145b91505092915050565b8273ffffffffffffffffffffffffffffffffffffffff16610e0c826106e6565b73ffffffffffffffffffffffffffffffffffffffff1614610e62576040517f08c379a0000000000000000000000000000000000000000000000000000000008152600401610e59906127a8565b60405180910390fd5b600073ffffffffffffffffffffffffffffffffffffffff168273ffffffffffffffffffffffffffffffffffffffff1603610ed1576040517f08c379a0000000000000000000000000000000000000000000000000000000008152600401610ec89061283a565b60405180910390fd5b610ede838383600161177f565b8273ffffffffffffffffffffffffffffffffffffffff16610efe826106e6565b73ffffffffffffffffffffffffffffffffffffffff1614610f54576040517f08c379a0000000000000000000000000000000000000000000000000000000008152600401610f4b906127a8565b60405180910390fd5b6004600082815260200190815260200160002060006101000a81549073ffffffffffffffffffffffffffffffffffffffff02191690556001600360008573ffffffffffffffffffffffffffffffffffffffff1673ffffffffffffffffffffffffffffffffffffffff168152602001908152602001600020600082825403925050819055506001600360008473ffffffffffffffffffffffffffffffffffffffff1673ffffffffffffffffffffffffffffffffffffffff16815260200190815260200160002060008282540192505081905550816002600083815260200190815260200160002060006101000a81548173ffffffffffffffffffffffffffffffffffffffff021916908373ffffffffffffffffffffffffffffffffffffffff160217905550808273ffffffffffffffffffffffffffffffffffffffff168473ffffffffffffffffffffffffffffffffffffffff167fddf252ad1be2c89b69c2b068fc378daa952ba7f163c4a11628f55a4df523b3ef60405160405180910390a46110e08383836001611785565b505050565b60006002600083815260200190815260200160002060009054906101000a900473ffffffffffffffffffffffffffffffffffffffff169050919050565b61112a610c96565b73ffffffffffffffffffffffffffffffffffffffff1661114861083d565b73ffffffffffffffffffffffffffffffffffffffff161461119e576040517f08c379a0000000000000000000000000000000000000000000000000000000008152600401611195906128a6565b60405180910390fd5b565b6000600760009054906101000a900473ffffffffffffffffffffffffffffffffffffffff16905081600760006101000a81548173ffffffffffffffffffffffffffffffffffffffff021916908373ffffffffffffffffffffffffffffffffffffffff1602179055508173ffffffffffffffffffffffffffffffffffffffff168173ffffffffffffffffffffffffffffffffffffffff167f8be0079c531659141344cd1fd0a4f28419497f9722a3daafe3b4186f6b6457e060405160405180910390a35050565b8173ffffffffffffffffffffffffffffffffffffffff168373ffffffffffffffffffffffffffffffffffffffff16036112d4576040517f08c379a00000000000000000000000000000000000000000000000000000000081526004016112cb90612912565b60405180910390fd5b80600560008573ffffffffffffffffffffffffffffffffffffffff1673ffffffffffffffffffffffffffffffffffffffff16815260200190815260200160002060008473ffffffffffffffffffffffffffffffffffffffff1673ffffffffffffffffffffffffffffffffffffffff16815260200190815260200160002060006101000a81548160ff0219169083151502179055508173ffffffffffffffffffffffffffffffffffffffff168373ffffffffffffffffffffffffffffffffffffffff167f17307eab39ab6107e8899845ad3d59bd9653f200f220920489ca2b5937696c31836040516113c59190611cad565b60405180910390a3505050565b6113dd848484610dec565b6113e98484848461178b565b611428576040517f08c379a000000000000000000000000000000000000000000000000000000000815260040161141f906129a4565b60405180910390fd5b50505050565b606060405180602001604052806000815250905090565b606061145082610c4b565b600061145a61142e565b9050600081511161147a57604051806020016040528060008152506114a5565b8061148484611912565b604051602001611495929190612609565b6040516020818303038152906040525b915050919050565b600073ffffffffffffffffffffffffffffffffffffffff168273ffffffffffffffffffffffffffffffffffffffff160361151c576040517f08c379a000000000000000000000000000000000000000000000000000000000815260040161151390612a10565b60405180910390fd5b6115258161173e565b15611565576040517f08c379a000000000000000000000000000000000000000000000000000000000815260040161155c90612a7c565b60405180910390fd5b61157360008383600161177f565b61157c8161173e565b156115bc576040517f08c379a00000000000000000000000000000000000000000000000000000000081526004016115b390612a7c565b60405180910390fd5b6001600360008473ffffffffffffffffffffffffffffffffffffffff1673ffffffffffffffffffffffffffffffffffffffff16815260200190815260200160002060008282540192505081905550816002600083815260200190815260200160002060006101000a81548173ffffffffffffffffffffffffffffffffffffffff021916908373ffffffffffffffffffffffffffffffffffffffff160217905550808273ffffffffffffffffffffffffffffffffffffffff16600073ffffffffffffffffffffffffffffffffffffffff167fddf252ad1be2c89b69c2b068fc378daa952ba7f163c4a11628f55a4df523b3ef60405160405180910390a46116c6600083836001611785565b5050565b6116d38261173e565b611712576040517f08c379a000000000000000000000000000000000000000000000000000000000815260040161170990612b0e565b60405180910390fd5b80600660008481526020019081526020016000209080519060200190611739929190611b56565b505050565b60008073ffffffffffffffffffffffffffffffffffffffff16611760836110e5565b73ffffffffffffffffffffffffffffffffffffffff1614159050919050565b50505050565b50505050565b60006117ac8473ffffffffffffffffffffffffffffffffffffffff166119e0565b15611905578373ffffffffffffffffffffffffffffffffffffffff1663150b7a026117d5610c96565b8786866040518563ffffffff1660e01b81526004016117f79493929190612b83565b6020604051808303816000875af192505050801561183357506040513d601f19601f820116820180604052508101906118309190612be4565b60015b6118b5573d8060008114611863576040519150601f19603f3d011682016040523d82523d6000602084013e611868565b606091505b5060008151036118ad576040517f08c379a00000000000000000000000000000000000000000000000000000000081526004016118a4906129a4565b60405180910390fd5b805181602001fd5b63150b7a0260e01b7bffffffffffffffffffffffffffffffffffffffffffffffffffffffff1916817bffffffffffffffffffffffffffffffffffffffffffffffffffffffff19161491505061190a565b600190505b949350505050565b60606000600161192184611a03565b01905060008167ffffffffffffffff8111156119405761193f611fce565b5b6040519080825280601f01601f1916602001820160405280156119725781602001600182028036833780820191505090505b509050600082602001820190505b6001156119d5578080600190039150507f3031323334353637383961626364656600000000000000000000000000000000600a86061a8153600a85816119c9576119c8612c11565b5b04945060008503611980575b819350505050919050565b6000808273ffffffffffffffffffffffffffffffffffffffff163b119050919050565b600080600090507a184f03e93ff9f4daa797ed6e38ed64bf6a1f0100000000000000008310611a61577a184f03e93ff9f4daa797ed6e38ed64bf6a1f0100000000000000008381611a5757611a56612c11565b5b0492506040810190505b6d04ee2d6d415b85acef81000000008310611a9e576d04ee2d6d415b85acef81000000008381611a9457611a93612c11565b5b0492506020810190505b662386f26fc100008310611acd57662386f26fc100008381611ac357611ac2612c11565b5b0492506010810190505b6305f5e1008310611af6576305f5e1008381611aec57611aeb612c11565b5b0492506008810190505b6127108310611b1b576127108381611b1157611b10612c11565b5b0492506004810190505b60648310611b3e5760648381611b3457611b33612c11565b5b0492506002810190505b600a8310611b4d576001810190505b80915050919050565b828054611b62906122e8565b90600052602060002090601f016020900481019282611b845760008555611bcb565b82601f10611b9d57805160ff1916838001178555611bcb565b82800160010185558215611bcb579182015b82811115611bca578251825591602001919060010190611baf565b5b509050611bd89190611bdc565b5090565b5b80821115611bf5576000816000905550600101611bdd565b5090565b6000604051905090565b600080fd5b600080fd5b60007fffffffff0000000000000000000000000000000000000000000000000000000082169050919050565b611c4281611c0d565b8114611c4d57600080fd5b50565b600081359050611c5f81611c39565b92915050565b600060208284031215611c7b57611c7a611c03565b5b6000611c8984828501611c50565b91505092915050565b60008115159050919050565b611ca781611c92565b82525050565b6000602082019050611cc26000830184611c9e565b92915050565b600081519050919050565b600082825260208201905092915050565b60005b83811015611d02578082015181840152602081019050611ce7565b83811115611d11576000848401525b50505050565b6000601f19601f8301169050919050565b6000611d3382611cc8565b611d3d8185611cd3565b9350611d4d818560208601611ce4565b611d5681611d17565b840191505092915050565b60006020820190508181036000830152611d7b8184611d28565b905092915050565b6000819050919050565b611d9681611d83565b8114611da157600080fd5b50565b600081359050611db381611d8d565b92915050565b600060208284031215611dcf57611dce611c03565b5b6000611ddd84828501611da4565b91505092915050565b600073ffffffffffffffffffffffffffffffffffffffff82169050919050565b6000611e1182611de6565b9050919050565b611e2181611e06565b82525050565b6000602082019050611e3c6000830184611e18565b92915050565b611e4b81611e06565b8114611e5657600080fd5b50565b600081359050611e6881611e42565b92915050565b60008060408385031215611e8557611e84611c03565b5b6000611e9385828601611e59565b9250506020611ea485828601611da4565b9150509250929050565b600080600060608486031215611ec757611ec6611c03565b5b6000611ed586828701611e59565b9350506020611ee686828701611e59565b9250506040611ef786828701611da4565b9150509250925092565b600060208284031215611f1757611f16611c03565b5b6000611f2584828501611e59565b91505092915050565b611f3781611d83565b82525050565b6000602082019050611f526000830184611f2e565b92915050565b611f6181611c92565b8114611f6c57600080fd5b50565b600081359050611f7e81611f58565b92915050565b60008060408385031215611f9b57611f9a611c03565b5b6000611fa985828601611e59565b9250506020611fba85828601611f6f565b9150509250929050565b600080fd5b600080fd5b7f4e487b7100000000000000000000000000000000000000000000000000000000600052604160045260246000fd5b61200682611d17565b810181811067ffffffffffffffff8211171561202557612024611fce565b5b80604052505050565b6000612038611bf9565b90506120448282611ffd565b919050565b600067ffffffffffffffff82111561206457612063611fce565b5b61206d82611d17565b9050602081019050919050565b82818337600083830152505050565b600061209c61209784612049565b61202e565b9050828152602081018484840111156120b8576120b7611fc9565b5b6120c384828561207a565b509392505050565b600082601f8301126120e0576120df611fc4565b5b81356120f0848260208601612089565b91505092915050565b6000806000806080858703121561211357612112611c03565b5b600061212187828801611e59565b945050602061213287828801611e59565b935050604061214387828801611da4565b925050606085013567ffffffffffffffff81111561216457612163611c08565b5b612170878288016120cb565b91505092959194509250565b600067ffffffffffffffff82111561219757612196611fce565b5b6121a082611d17565b9050602081019050919050565b60006121c06121bb8461217c565b61202e565b9050828152602081018484840111156121dc576121db611fc9565b5b6121e784828561207a565b509392505050565b600082601f83011261220457612203611fc4565b5b81356122148482602086016121ad565b91505092915050565b6000806040838503121561223457612233611c03565b5b600061224285828601611e59565b925050602083013567ffffffffffffffff81111561226357612262611c08565b5b61226f858286016121ef565b9150509250929050565b600080604083850312156122905761228f611c03565b5b600061229e85828601611e59565b92505060206122af85828601611e59565b9150509250929050565b7f4e487b7100000000000000000000000000000000000000000000000000000000600052602260045260246000fd5b6000600282049050600182168061230057607f821691505b602082108103612313576123126122b9565b5b50919050565b7f4552433732313a20617070726f76616c20746f2063757272656e74206f776e6560008201527f7200000000000000000000000000000000000000000000000000000000000000602082015250565b6000612375602183611cd3565b915061238082612319565b604082019050919050565b600060208201905081810360008301526123a481612368565b9050919050565b7f4552433732313a20617070726f76652063616c6c6572206973206e6f7420746f60008201527f6b656e206f776e6572206f7220617070726f76656420666f7220616c6c000000602082015250565b6000612407603d83611cd3565b9150612412826123ab565b604082019050919050565b60006020820190508181036000830152612436816123fa565b9050919050565b7f4552433732313a2063616c6c6572206973206e6f7420746f6b656e206f776e6560008201527f72206f7220617070726f76656400000000000000000000000000000000000000602082015250565b6000612499602d83611cd3565b91506124a48261243d565b604082019050919050565b600060208201905081810360008301526124c88161248c565b9050919050565b7f4552433732313a20696e76616c696420746f6b656e2049440000000000000000600082015250565b6000612505601883611cd3565b9150612510826124cf565b602082019050919050565b60006020820190508181036000830152612534816124f8565b9050919050565b7f4552433732313a2061646472657373207a65726f206973206e6f74206120766160008201527f6c6964206f776e65720000000000000000000000000000000000000000000000602082015250565b6000612597602983611cd3565b91506125a28261253b565b604082019050919050565b600060208201905081810360008301526125c68161258a565b9050919050565b600081905092915050565b60006125e382611cc8565b6125ed81856125cd565b93506125fd818560208601611ce4565b80840191505092915050565b600061261582856125d8565b915061262182846125d8565b91508190509392505050565b7f4e487b7100000000000000000000000000000000000000000000000000000000600052601160045260246000fd5b600061266782611d83565b91507fffffffffffffffffffffffffffffffffffffffffffffffffffffffffffffffff82036126995761269861262d565b5b600182019050919050565b7f4f776e61626c653a206e6577206f776e657220697320746865207a65726f206160008201527f6464726573730000000000000000000000000000000000000000000000000000602082015250565b6000612700602683611cd3565b915061270b826126a4565b604082019050919050565b6000602082019050818103600083015261272f816126f3565b9050919050565b7f4552433732313a207472616e736665722066726f6d20696e636f72726563742060008201527f6f776e6572000000000000000000000000000000000000000000000000000000602082015250565b6000612792602583611cd3565b915061279d82612736565b604082019050919050565b600060208201905081810360008301526127c181612785565b9050919050565b7f4552433732313a207472616e7366657220746f20746865207a65726f2061646460008201527f7265737300000000000000000000000000000000000000000000000000000000602082015250565b6000612824602483611cd3565b915061282f826127c8565b604082019050919050565b6000602082019050818103600083015261285381612817565b9050919050565b7f4f776e61626c653a2063616c6c6572206973206e6f7420746865206f776e6572600082015250565b6000612890602083611cd3565b915061289b8261285a565b602082019050919050565b600060208201905081810360008301526128bf81612883565b9050919050565b7f4552433732313a20617070726f766520746f2063616c6c657200000000000000600082015250565b60006128fc601983611cd3565b9150612907826128c6565b602082019050919050565b6000602082019050818103600083015261292b816128ef565b9050919050565b7f4552433732313a207472616e7366657220746f206e6f6e20455243373231526560008201527f63656976657220696d706c656d656e7465720000000000000000000000000000602082015250565b600061298e603283611cd3565b915061299982612932565b604082019050919050565b600060208201905081810360008301526129bd81612981565b9050919050565b7f4552433732313a206d696e7420746f20746865207a65726f2061646472657373600082015250565b60006129fa602083611cd3565b9150612a05826129c4565b602082019050919050565b60006020820190508181036000830152612a29816129ed565b9050919050565b7f4552433732313a20746f6b656e20616c7265616479206d696e74656400000000600082015250565b6000612a66601c83611cd3565b9150612a7182612a30565b602082019050919050565b60006020820190508181036000830152612a9581612a59565b9050919050565b7f45524337323155524953746f726167653a2055524920736574206f66206e6f6e60008201527f6578697374656e7420746f6b656e000000000000000000000000000000000000602082015250565b6000612af8602e83611cd3565b9150612b0382612a9c565b604082019050919050565b60006020820190508181036000830152612b2781612aeb565b9050919050565b600081519050919050565b600082825260208201905092915050565b6000612b5582612b2e565b612b5f8185612b39565b9350612b6f818560208601611ce4565b612b7881611d17565b840191505092915050565b6000608082019050612b986000830187611e18565b612ba56020830186611e18565b612bb26040830185611f2e565b8181036060830152612bc48184612b4a565b905095945050505050565b600081519050612bde81611c39565b92915050565b600060208284031215612bfa57612bf9611c03565b5b6000612c0884828501612bcf565b91505092915050565b7f4e487b7100000000000000000000000000000000000000000000000000000000600052601260045260246000fdfea26469706673582212201269a45ac79bb2356280d11277ee652aa263d61c2633eb2a0baf5961adc04b6f64736f6c634300080d0033",
  "immutableReferences": {},
  "source": "// SPDX-License-Identifier: MIT\r\npragma solidity ^0.8.13;\r\n\r\nimport \"@openzeppelin/contracts/token/ERC721/extensions/ERC721URIStorage.sol\";\r\nimport \"@openzeppelin/contracts/access/Ownable.sol\";\r\n\r\ncontract GachaNFT is ERC721URIStorage, Ownable {\r\n    uint256 public nextTokenId = 0;\r\n\r\n    constructor() ERC721(\"GachaNFT\", \"GNFT\") {\r\n        transferOwnership(msg.sender); // <-    ( )\r\n    }\r\n\r\n    function mint(address to, string memory tokenURI) public onlyOwner returns (uint256) {\r\n        uint256 tokenId = nextTokenId;\r\n        nextTokenId++;\r\n\r\n        _mint(to, tokenId);\r\n        _setTokenURI(tokenId, tokenURI);\r\n        return tokenId;\r\n    }\r\n}\r\n",
  "sourcePath": "C:\\blockchain\\BlockchainIntro\\solidity\\contracts\\GachaNFT.sol",
  "compiler": {
    "name": "solc",
    "version": "0.8.13+commit.abaa5c0e.Emscripten.clang"
  },
  "schemaVersion": "3.4.16",
  "updatedAt": "2025-06-09T02:48:26.988Z",
  "networkType": "ethereum",
  "devdoc": {
    "kind": "dev",
    "methods": {
      "approve(address,uint256)": {
        "details": "See {IERC721-approve}."
      },
      "balanceOf(address)": {
        "details": "See {IERC721-balanceOf}."
      },
      "getApproved(uint256)": {
        "details": "See {IERC721-getApproved}."
      },
      "isApprovedForAll(address,address)": {
        "details": "See {IERC721-isApprovedForAll}."
      },
      "name()": {
        "details": "See {IERC721Metadata-name}."
      },
      "owner()": {
        "details": "Returns the address of the current owner."
      },
      "ownerOf(uint256)": {
        "details": "See {IERC721-ownerOf}."
      },
      "renounceOwnership()": {
        "details": "Leaves the contract without owner. It will not be possible to call `onlyOwner` functions anymore. Can only be called by the current owner. NOTE: Renouncing ownership will leave the contract without an owner, thereby removing any functionality that is only available to the owner."
      },
      "safeTransferFrom(address,address,uint256)": {
        "details": "See {IERC721-safeTransferFrom}."
      },
      "safeTransferFrom(address,address,uint256,bytes)": {
        "details": "See {IERC721-safeTransferFrom}."
      },
      "setApprovalForAll(address,bool)": {
        "details": "See {IERC721-setApprovalForAll}."
      },
      "supportsInterface(bytes4)": {
        "details": "See {IERC165-supportsInterface}."
      },
      "symbol()": {
        "details": "See {IERC721Metadata-symbol}."
      },
      "tokenURI(uint256)": {
        "details": "See {IERC721Metadata-tokenURI}."
      },
      "transferFrom(address,address,uint256)": {
        "details": "See {IERC721-transferFrom}."
      },
      "transferOwnership(address)": {
        "details": "Transfers ownership of the contract to a new account (`newOwner`). Can only be called by the current owner."
      }
    },
    "version": 1
  },
  "userdoc": {
    "kind": "user",
    "methods": {},
    "version": 1
  }
}