{
  "contractName": "GachaContract",
  "abi": [
    {
      "inputs": [
        {
          "internalType": "address",
          "name": "_nftAddress",
          "type": "address"
        },
        {
          "internalType": "uint256[]",
          "name": "_tokenIds",
          "type": "uint256[]"
        }
      ],
      "stateMutability": "nonpayable",
      "type": "constructor"
    },
    {
      "inputs": [],
      "name": "nft",
      "outputs": [
        {
          "internalType": "contract GachaNFT",
          "name": "",
          "type": "address"
        }
      ],
      "stateMutability": "view",
      "type": "function",
      "constant": true
    },
    {
      "inputs": [],
      "name": "owner",
      "outputs": [
        {
          "internalType": "address",
          "name": "",
          "type": "address"
        }
      ],
      "stateMutability": "view",
      "type": "function",
      "constant": true
    },
    {
      "inputs": [
        {
          "internalType": "uint256",
          "name": "",
          "type": "uint256"
        }
      ],
      "name": "tokenIds",
      "outputs": [
        {
          "internalType": "uint256",
          "name": "",
          "type": "uint256"
        }
      ],
      "stateMutability": "view",
      "type": "function",
      "constant": true
    },
    {
      "inputs": [],
      "name": "draw",
      "outputs": [
        {
          "internalType": "uint256",
          "name": "",
          "type": "uint256"
        }
      ],
      "stateMutability": "nonpayable",
      "type": "function"
    },
    {
      "inputs": [],
      "name": "getRemaining",
      "outputs": [
        {
          "internalType": "uint256",
          "name": "",
          "type": "uint256"
        }
      ],
      "stateMutability": "view",
      "type": "function",
      "constant": true
    }
  ],
  "bytecode": "0x60806040523480156200001157600080fd5b5060405162000b6238038062000b62833981810160405281019062000037919062000373565b336000806101000a81548173ffffffffffffffffffffffffffffffffffffffff021916908373ffffffffffffffffffffffffffffffffffffffff16021790555081600160006101000a81548173ffffffffffffffffffffffffffffffffffffffff021916908373ffffffffffffffffffffffffffffffffffffffff1602179055508060029080519060200190620000d0929190620000d9565b505050620003d9565b82805482825590600052602060002090810192821562000118579160200282015b8281111562000117578251825591602001919060010190620000fa565b5b5090506200012791906200012b565b5090565b5b80821115620001465760008160009055506001016200012c565b5090565b6000604051905090565b600080fd5b600080fd5b600073ffffffffffffffffffffffffffffffffffffffff82169050919050565b60006200018b826200015e565b9050919050565b6200019d816200017e565b8114620001a957600080fd5b50565b600081519050620001bd8162000192565b92915050565b600080fd5b6000601f19601f8301169050919050565b7f4e487b7100000000000000000000000000000000000000000000000000000000600052604160045260246000fd5b6200021382620001c8565b810181811067ffffffffffffffff82111715620002355762000234620001d9565b5b80604052505050565b60006200024a6200014a565b905062000258828262000208565b919050565b600067ffffffffffffffff8211156200027b576200027a620001d9565b5b602082029050602081019050919050565b600080fd5b6000819050919050565b620002a68162000291565b8114620002b257600080fd5b50565b600081519050620002c6816200029b565b92915050565b6000620002e3620002dd846200025d565b6200023e565b905080838252602082019050602084028301858111156200030957620003086200028c565b5b835b81811015620003365780620003218882620002b5565b8452602084019350506020810190506200030b565b5050509392505050565b600082601f830112620003585762000357620001c3565b5b81516200036a848260208601620002cc565b91505092915050565b600080604083850312156200038d576200038c62000154565b5b60006200039d85828601620001ac565b925050602083015167ffffffffffffffff811115620003c157620003c062000159565b5b620003cf8582860162000340565b9150509250929050565b61077980620003e96000396000f3fe608060405234801561001057600080fd5b50600436106100575760003560e01c80630eecae211461005c57806347ccca021461007a5780638da5cb5b14610098578063d58778d6146100b6578063d6a022b8146100e6575b600080fd5b610064610104565b6040516100719190610379565b60405180910390f35b6100826102e5565b60405161008f9190610413565b60405180910390f35b6100a061030b565b6040516100ad919061044f565b60405180910390f35b6100d060048036038101906100cb919061049b565b61032f565b6040516100dd9190610379565b60405180910390f35b6100ee610353565b6040516100fb9190610379565b60405180910390f35b6000806002805490501161014d576040517f08c379a000000000000000000000000000000000000000000000000000000000815260040161014490610525565b60405180910390fd5b600060028054905042334360405160200161016a939291906105ae565b6040516020818303038152906040528051906020012060001c61018d919061061a565b90506000600282815481106101a5576101a461064b565b5b90600052602060002001549050600260016002805490506101c691906106a9565b815481106101d7576101d661064b565b5b9060005260206000200154600283815481106101f6576101f561064b565b5b90600052602060002001819055506002805480610216576102156106dd565b5b60019003818190600052602060002001600090559055600160009054906101000a900473ffffffffffffffffffffffffffffffffffffffff1673ffffffffffffffffffffffffffffffffffffffff166342842e0e60008054906101000a900473ffffffffffffffffffffffffffffffffffffffff1633846040518463ffffffff1660e01b81526004016102ab9392919061070c565b600060405180830381600087803b1580156102c557600080fd5b505af11580156102d9573d6000803e3d6000fd5b50505050809250505090565b600160009054906101000a900473ffffffffffffffffffffffffffffffffffffffff1681565b60008054906101000a900473ffffffffffffffffffffffffffffffffffffffff1681565b6002818154811061033f57600080fd5b906000526020600020016000915090505481565b6000600280549050905090565b6000819050919050565b61037381610360565b82525050565b600060208201905061038e600083018461036a565b92915050565b600073ffffffffffffffffffffffffffffffffffffffff82169050919050565b6000819050919050565b60006103d96103d46103cf84610394565b6103b4565b610394565b9050919050565b60006103eb826103be565b9050919050565b60006103fd826103e0565b9050919050565b61040d816103f2565b82525050565b60006020820190506104286000830184610404565b92915050565b600061043982610394565b9050919050565b6104498161042e565b82525050565b60006020820190506104646000830184610440565b92915050565b600080fd5b61047881610360565b811461048357600080fd5b50565b6000813590506104958161046f565b92915050565b6000602082840312156104b1576104b061046a565b5b60006104bf84828501610486565b91505092915050565b600082825260208201905092915050565b7f4e6f206974656d73206c65667400000000000000000000000000000000000000600082015250565b600061050f600d836104c8565b915061051a826104d9565b602082019050919050565b6000602082019050818103600083015261053e81610502565b9050919050565b6000819050919050565b61056061055b82610360565b610545565b82525050565b60008160601b9050919050565b600061057e82610566565b9050919050565b600061059082610573565b9050919050565b6105a86105a38261042e565b610585565b82525050565b60006105ba828661054f565b6020820191506105ca8285610597565b6014820191506105da828461054f565b602082019150819050949350505050565b7f4e487b7100000000000000000000000000000000000000000000000000000000600052601260045260246000fd5b600061062582610360565b915061063083610360565b9250826106405761063f6105eb565b5b828206905092915050565b7f4e487b7100000000000000000000000000000000000000000000000000000000600052603260045260246000fd5b7f4e487b7100000000000000000000000000000000000000000000000000000000600052601160045260246000fd5b60006106b482610360565b91506106bf83610360565b9250828210156106d2576106d161067a565b5b828203905092915050565b7f4e487b7100000000000000000000000000000000000000000000000000000000600052603160045260246000fd5b60006060820190506107216000830186610440565b61072e6020830185610440565b61073b604083018461036a565b94935050505056fea264697066735822122093316bb3e55bcd26bf3b6f1be0edc8057aa35cf907e80ec674521d44d85e326764736f6c634300080d0033",
  "immutableReferences": {},
  "source": "// SPDX-License-Identifier: MIT\r\npragma solidity ^0.8.13;\r\n\r\nimport \"./GachaNFT.sol\";\r\n\r\ncontract GachaContract {\r\n    address public owner;\r\n    GachaNFT public nft;\r\n    uint256[] public tokenIds;\r\n\r\n    constructor(address _nftAddress, uint256[] memory _tokenIds) {\r\n        owner = msg.sender;\r\n        nft = GachaNFT(_nftAddress);\r\n        tokenIds = _tokenIds;\r\n    }\r\n\r\n    function draw() public returns (uint256) {\r\n        require(tokenIds.length > 0, \"No items left\");\r\n\r\n        uint256 random = uint256(keccak256(abi.encodePacked(block.timestamp, msg.sender, block.number))) % tokenIds.length;\r\n        uint256 tokenId = tokenIds[random];\r\n\r\n        tokenIds[random] = tokenIds[tokenIds.length - 1];\r\n        tokenIds.pop();\r\n\r\n        nft.safeTransferFrom(owner, msg.sender, tokenId);\r\n        return tokenId;\r\n    }\r\n\r\n    function getRemaining() public view returns (uint256) {\r\n        return tokenIds.length;\r\n    }\r\n}\r\n",
  "sourcePath": "C:\\blockchain\\BlockchainIntro\\solidity\\contracts\\GachaContract.sol",
  "compiler": {
    "name": "solc",
    "version": "0.8.13+commit.abaa5c0e.Emscripten.clang"
  },
  "schemaVersion": "3.4.16",
  "updatedAt": "2025-06-09T02:48:27.000Z",
  "networkType": "ethereum",
  "devdoc": {
    "kind": "dev",
    "methods": {},
    "version": 1
  },
  "userdoc": {
    "kind": "user",
    "methods": {},
    "version": 1
  }
}