{
  "contractName": "GachaContract",
  "abi": [
    {
      "inputs": [
        {
          "internalType": "address",
          "name": "_nftAddress",
          "type": "address"
        },
        {
          "internalType": "uint256[]",
          "name": "_tokenIds",
          "type": "uint256[]"
        }
      ],
      "stateMutability": "nonpayable",
      "type": "constructor"
    },
    {
      "inputs": [],
      "name": "nft",
      "outputs": [
        {
          "internalType": "contract GachaNFT",
          "name": "",
          "type": "address"
        }
      ],
      "stateMutability": "view",
      "type": "function"
    },
    {
      "inputs": [
        {
          "internalType": "address",
          "name": "",
          "type": "address"
        },
        {
          "internalType": "address",
          "name": "",
          "type": "address"
        },
        {
          "internalType": "uint256",
          "name": "",
          "type": "uint256"
        },
        {
          "internalType": "bytes",
          "name": "",
          "type": "bytes"
        }
      ],
      "name": "onERC721Received",
      "outputs": [
        {
          "internalType": "bytes4",
          "name": "",
          "type": "bytes4"
        }
      ],
      "stateMutability": "nonpayable",
      "type": "function"
    },
    {
      "inputs": [],
      "name": "owner",
      "outputs": [
        {
          "internalType": "address",
          "name": "",
          "type": "address"
        }
      ],
      "stateMutability": "view",
      "type": "function"
    },
    {
      "inputs": [
        {
          "internalType": "uint256",
          "name": "",
          "type": "uint256"
        }
      ],
      "name": "tokenIds",
      "outputs": [
        {
          "internalType": "uint256",
          "name": "",
          "type": "uint256"
        }
      ],
      "stateMutability": "view",
      "type": "function"
    },
    {
      "inputs": [],
      "name": "draw",
      "outputs": [
        {
          "internalType": "uint256",
          "name": "",
          "type": "uint256"
        }
      ],
      "stateMutability": "nonpayable",
      "type": "function"
    },
    {
      "inputs": [
        {
          "internalType": "uint256[]",
          "name": "_ids",
          "type": "uint256[]"
        }
      ],
      "name": "setTokenIds",
      "outputs": [],
      "stateMutability": "nonpayable",
      "type": "function"
    },
    {
      "inputs": [],
      "name": "getRemaining",
      "outputs": [
        {
          "internalType": "uint256",
          "name": "",
          "type": "uint256"
        }
      ],
      "stateMutability": "view",
      "type": "function"
    }
  ],
  "bytecode": "0x60806040523480156200001157600080fd5b506040516200106b3803806200106b833981810160405281019062000037919062000373565b336000806101000a81548173ffffffffffffffffffffffffffffffffffffffff021916908373ffffffffffffffffffffffffffffffffffffffff16021790555081600160006101000a81548173ffffffffffffffffffffffffffffffffffffffff021916908373ffffffffffffffffffffffffffffffffffffffff1602179055508060029080519060200190620000d0929190620000d9565b505050620003d9565b82805482825590600052602060002090810192821562000118579160200282015b8281111562000117578251825591602001919060010190620000fa565b5b5090506200012791906200012b565b5090565b5b80821115620001465760008160009055506001016200012c565b5090565b6000604051905090565b600080fd5b600080fd5b600073ffffffffffffffffffffffffffffffffffffffff82169050919050565b60006200018b826200015e565b9050919050565b6200019d816200017e565b8114620001a957600080fd5b50565b600081519050620001bd8162000192565b92915050565b600080fd5b6000601f19601f8301169050919050565b7f4e487b7100000000000000000000000000000000000000000000000000000000600052604160045260246000fd5b6200021382620001c8565b810181811067ffffffffffffffff82111715620002355762000234620001d9565b5b80604052505050565b60006200024a6200014a565b905062000258828262000208565b919050565b600067ffffffffffffffff8211156200027b576200027a620001d9565b5b602082029050602081019050919050565b600080fd5b6000819050919050565b620002a68162000291565b8114620002b257600080fd5b50565b600081519050620002c6816200029b565b92915050565b6000620002e3620002dd846200025d565b6200023e565b905080838252602082019050602084028301858111156200030957620003086200028c565b5b835b81811015620003365780620003218882620002b5565b8452602084019350506020810190506200030b565b5050509392505050565b600082601f830112620003585762000357620001c3565b5b81516200036a848260208601620002cc565b91505092915050565b600080604083850312156200038d576200038c62000154565b5b60006200039d85828601620001ac565b925050602083015167ffffffffffffffff811115620003c157620003c062000159565b5b620003cf8582860162000340565b9150509250929050565b610c8280620003e96000396000f3fe608060405234801561001057600080fd5b506004361061007d5760003560e01c806347ccca021161005b57806347ccca02146100ec5780638da5cb5b1461010a578063d58778d614610128578063d6a022b8146101585761007d565b80630eecae2114610082578063121cf3f2146100a0578063150b7a02146100bc575b600080fd5b61008a610176565b60405161009791906104ab565b60405180910390f35b6100ba60048036038101906100b5919061065f565b610337565b005b6100d660048036038101906100d191906107bb565b610399565b6040516100e39190610879565b60405180910390f35b6100f46103ad565b60405161010191906108f3565b60405180910390f35b6101126103d3565b60405161011f919061091d565b60405180910390f35b610142600480360381019061013d9190610938565b6103f7565b60405161014f91906104ab565b60405180910390f35b61016061041b565b60405161016d91906104ab565b60405180910390f35b600080600280549050116101bf576040517f08c379a00000000000000000000000000000000000000000000000000000000081526004016101b6906109c2565b60405180910390fd5b60006002805490504233436040516020016101dc93929190610a4b565b6040516020818303038152906040528051906020012060001c6101ff9190610ab7565b905060006002828154811061021757610216610ae8565b5b90600052602060002001549050600260016002805490506102389190610b46565b8154811061024957610248610ae8565b5b90600052602060002001546002838154811061026857610267610ae8565b5b9060005260206000200181905550600280548061028857610287610b7a565b5b60019003818190600052602060002001600090559055600160009054906101000a900473ffffffffffffffffffffffffffffffffffffffff1673ffffffffffffffffffffffffffffffffffffffff166342842e0e3033846040518463ffffffff1660e01b81526004016102fd93929190610ba9565b600060405180830381600087803b15801561031757600080fd5b505af115801561032b573d6000803e3d6000fd5b50505050809250505090565b60006002805490501461037f576040517f08c379a000000000000000000000000000000000000000000000000000000000815260040161037690610c2c565b60405180910390fd5b8060029080519060200190610395929190610428565b5050565b600063150b7a0260e01b9050949350505050565b600160009054906101000a900473ffffffffffffffffffffffffffffffffffffffff1681565b60008054906101000a900473ffffffffffffffffffffffffffffffffffffffff1681565b6002818154811061040757600080fd5b906000526020600020016000915090505481565b6000600280549050905090565b828054828255906000526020600020908101928215610464579160200282015b82811115610463578251825591602001919060010190610448565b5b5090506104719190610475565b5090565b5b8082111561048e576000816000905550600101610476565b5090565b6000819050919050565b6104a581610492565b82525050565b60006020820190506104c0600083018461049c565b92915050565b6000604051905090565b600080fd5b600080fd5b600080fd5b6000601f19601f8301169050919050565b7f4e487b7100000000000000000000000000000000000000000000000000000000600052604160045260246000fd5b610528826104df565b810181811067ffffffffffffffff82111715610547576105466104f0565b5b80604052505050565b600061055a6104c6565b9050610566828261051f565b919050565b600067ffffffffffffffff821115610586576105856104f0565b5b602082029050602081019050919050565b600080fd5b6105a581610492565b81146105b057600080fd5b50565b6000813590506105c28161059c565b92915050565b60006105db6105d68461056b565b610550565b905080838252602082019050602084028301858111156105fe576105fd610597565b5b835b81811015610627578061061388826105b3565b845260208401935050602081019050610600565b5050509392505050565b600082601f830112610646576106456104da565b5b81356106568482602086016105c8565b91505092915050565b600060208284031215610675576106746104d0565b5b600082013567ffffffffffffffff811115610693576106926104d5565b5b61069f84828501610631565b91505092915050565b600073ffffffffffffffffffffffffffffffffffffffff82169050919050565b60006106d3826106a8565b9050919050565b6106e3816106c8565b81146106ee57600080fd5b50565b600081359050610700816106da565b92915050565b600080fd5b600067ffffffffffffffff821115610726576107256104f0565b5b61072f826104df565b9050602081019050919050565b82818337600083830152505050565b600061075e6107598461070b565b610550565b90508281526020810184848401111561077a57610779610706565b5b61078584828561073c565b509392505050565b600082601f8301126107a2576107a16104da565b5b81356107b284826020860161074b565b91505092915050565b600080600080608085870312156107d5576107d46104d0565b5b60006107e3878288016106f1565b94505060206107f4878288016106f1565b9350506040610805878288016105b3565b925050606085013567ffffffffffffffff811115610826576108256104d5565b5b6108328782880161078d565b91505092959194509250565b60007fffffffff0000000000000000000000000000000000000000000000000000000082169050919050565b6108738161083e565b82525050565b600060208201905061088e600083018461086a565b92915050565b6000819050919050565b60006108b96108b46108af846106a8565b610894565b6106a8565b9050919050565b60006108cb8261089e565b9050919050565b60006108dd826108c0565b9050919050565b6108ed816108d2565b82525050565b600060208201905061090860008301846108e4565b92915050565b610917816106c8565b82525050565b6000602082019050610932600083018461090e565b92915050565b60006020828403121561094e5761094d6104d0565b5b600061095c848285016105b3565b91505092915050565b600082825260208201905092915050565b7f4e6f206974656d73206c65667400000000000000000000000000000000000000600082015250565b60006109ac600d83610965565b91506109b782610976565b602082019050919050565b600060208201905081810360008301526109db8161099f565b9050919050565b6000819050919050565b6109fd6109f882610492565b6109e2565b82525050565b60008160601b9050919050565b6000610a1b82610a03565b9050919050565b6000610a2d82610a10565b9050919050565b610a45610a40826106c8565b610a22565b82525050565b6000610a5782866109ec565b602082019150610a678285610a34565b601482019150610a7782846109ec565b602082019150819050949350505050565b7f4e487b7100000000000000000000000000000000000000000000000000000000600052601260045260246000fd5b6000610ac282610492565b9150610acd83610492565b925082610add57610adc610a88565b5b828206905092915050565b7f4e487b7100000000000000000000000000000000000000000000000000000000600052603260045260246000fd5b7f4e487b7100000000000000000000000000000000000000000000000000000000600052601160045260246000fd5b6000610b5182610492565b9150610b5c83610492565b925082821015610b6f57610b6e610b17565b5b828203905092915050565b7f4e487b7100000000000000000000000000000000000000000000000000000000600052603160045260246000fd5b6000606082019050610bbe600083018661090e565b610bcb602083018561090e565b610bd8604083018461049c565b949350505050565b7f416c726561647920736574000000000000000000000000000000000000000000600082015250565b6000610c16600b83610965565b9150610c2182610be0565b602082019050919050565b60006020820190508181036000830152610c4581610c09565b905091905056fea26469706673582212202da725e3bf8451270f68f8c0d5bccdb01b3af8d096386e4653f7f4bab014f13764736f6c634300080d0033",
  "immutableReferences": {},
  "source": "// SPDX-License-Identifier: MIT\r\n\r\n// gachaNFT  vsc     (1)             \r\n//  gachaContrace            vsc     \r\n//     ( bytecode   deploy)\r\n\r\n\r\npragma solidity ^0.8.13;\r\n\r\nimport \"./GachaNFT.sol\";\r\nimport \"@openzeppelin/contracts/token/ERC721/utils/ERC721Holder.sol\";\r\n\r\ncontract GachaContract is ERC721Holder {\r\n    address public owner;\r\n    GachaNFT public nft;\r\n    uint256[] public tokenIds;\r\n\r\n    constructor(address _nftAddress, uint256[] memory _tokenIds) {\r\n        owner = msg.sender;\r\n        nft = GachaNFT(_nftAddress);\r\n        tokenIds = _tokenIds;\r\n    }\r\n\r\n    function draw() public returns (uint256) {\r\n        require(tokenIds.length > 0, \"No items left\");\r\n\r\n        uint256 random = uint256(keccak256(abi.encodePacked(block.timestamp, msg.sender, block.number))) % tokenIds.length;\r\n        uint256 tokenId = tokenIds[random];\r\n\r\n        tokenIds[random] = tokenIds[tokenIds.length - 1];\r\n        tokenIds.pop();\r\n\r\n        nft.safeTransferFrom(address(this), msg.sender, tokenId);\r\n        return tokenId;\r\n    }\r\n\r\n    function setTokenIds(uint256[] memory _ids) external {\r\n        require(tokenIds.length == 0, \"Already set\");\r\n        tokenIds = _ids;\r\n    }\r\n\r\n    function getRemaining() public view returns (uint256) {\r\n        return tokenIds.length;\r\n    }\r\n}\r\n",
  "sourcePath": "C:\\blockchain\\BlockchainIntro\\solidity\\contracts\\GachaContract.sol",
  "compiler": {
    "name": "solc",
    "version": "0.8.13+commit.abaa5c0e.Emscripten.clang"
  },
  "schemaVersion": "3.4.16",
  "updatedAt": "2025-06-09T21:12:01.420Z",
  "devdoc": {
    "kind": "dev",
    "methods": {
      "onERC721Received(address,address,uint256,bytes)": {
        "details": "See {IERC721Receiver-onERC721Received}. Always returns `IERC721Receiver.onERC721Received.selector`."
      }
    },
    "version": 1
  },
  "userdoc": {
    "kind": "user",
    "methods": {},
    "version": 1
  }
}